{
  "contractName": "PriceConsumerV3",
  "abi": [
    {
      "inputs": [
        {
          "internalType": "address",
          "name": "_priceFeed",
          "type": "address"
        }
      ],
      "stateMutability": "nonpayable",
      "type": "constructor"
    },
    {
      "inputs": [],
      "name": "getLatestPrice",
      "outputs": [
        {
          "internalType": "int256",
          "name": "",
          "type": "int256"
        }
      ],
      "stateMutability": "view",
      "type": "function",
      "constant": true
    },
    {
      "inputs": [],
      "name": "getPriceFeed",
      "outputs": [
        {
          "internalType": "contract AggregatorV3Interface",
          "name": "",
          "type": "address"
        }
      ],
      "stateMutability": "view",
      "type": "function",
      "constant": true
    }
  ],
  "bytecode": "0x608060405234801561001057600080fd5b5060405161047e38038061047e833981810160405281019061003291906100db565b806000806101000a81548173ffffffffffffffffffffffffffffffffffffffff021916908373ffffffffffffffffffffffffffffffffffffffff16021790555050610108565b600080fd5b600073ffffffffffffffffffffffffffffffffffffffff82169050919050565b60006100a88261007d565b9050919050565b6100b88161009d565b81146100c357600080fd5b50565b6000815190506100d5816100af565b92915050565b6000602082840312156100f1576100f0610078565b5b60006100ff848285016100c6565b91505092915050565b610367806101176000396000f3fe608060405234801561001057600080fd5b50600436106100365760003560e01c80638e15f4731461003b5780639e87a5cd14610059575b600080fd5b610043610077565b6040516100509190610158565b60405180910390f35b610061610116565b60405161006e91906101f2565b60405180910390f35b60008060008054906101000a900473ffffffffffffffffffffffffffffffffffffffff1673ffffffffffffffffffffffffffffffffffffffff1663feaf968c6040518163ffffffff1660e01b815260040160a060405180830381865afa1580156100e5573d6000803e3d6000fd5b505050506040513d601f19601f8201168201806040525081019061010991906102b6565b5050509150508091505090565b60008060009054906101000a900473ffffffffffffffffffffffffffffffffffffffff16905090565b6000819050919050565b6101528161013f565b82525050565b600060208201905061016d6000830184610149565b92915050565b600073ffffffffffffffffffffffffffffffffffffffff82169050919050565b6000819050919050565b60006101b86101b36101ae84610173565b610193565b610173565b9050919050565b60006101ca8261019d565b9050919050565b60006101dc826101bf565b9050919050565b6101ec816101d1565b82525050565b600060208201905061020760008301846101e3565b92915050565b600080fd5b600069ffffffffffffffffffff82169050919050565b61023181610212565b811461023c57600080fd5b50565b60008151905061024e81610228565b92915050565b61025d8161013f565b811461026857600080fd5b50565b60008151905061027a81610254565b92915050565b6000819050919050565b61029381610280565b811461029e57600080fd5b50565b6000815190506102b08161028a565b92915050565b600080600080600060a086880312156102d2576102d161020d565b5b60006102e08882890161023f565b95505060206102f18882890161026b565b9450506040610302888289016102a1565b9350506060610313888289016102a1565b92505060806103248882890161023f565b915050929550929590935056fea2646970667358221220b8c4bc08b96f6e4214c346a5bb8e8523a20b84c8a8bb5dbfbc1593af4aae69c764736f6c634300080d0033",
  "immutableReferences": {},
  "source": "// SPDX-License-Identifier: MIT\r\npragma solidity ^0.8.7;\r\n\r\nimport \"@chainlink/contracts/src/v0.8/interfaces/AggregatorV3Interface.sol\";\r\n\r\ncontract PriceConsumerV3 {\r\n    AggregatorV3Interface internal s_priceFeed;\r\n\r\n    constructor(address _priceFeed) {\r\n        s_priceFeed = AggregatorV3Interface(_priceFeed);\r\n    }\r\n\r\n    /**\r\n     * Returns the latest price\r\n     */\r\n    function getLatestPrice() public view returns (int256) {\r\n        (\r\n            ,\r\n            /*uint80 roundID*/\r\n            int256 price, /*uint startedAt*/ /*uint timeStamp*/ /*uint80 answeredInRound*/\r\n            ,\r\n            ,\r\n\r\n        ) = s_priceFeed.latestRoundData();\r\n        return price;\r\n    }\r\n\r\n    /**\r\n     * @notice Returns the Price Feed address\r\n     *\r\n     * @return Price Feed address\r\n     */\r\n    function getPriceFeed() public view returns (AggregatorV3Interface) {\r\n        return s_priceFeed;\r\n    }\r\n}\r\n",
  "sourcePath": "C:\\Users\\Fritz7x64\\Documents\\Angular\\simple-blockchain-dapp\\contracts\\PriceConsumerV3.sol",
  "compiler": {
    "name": "solc",
    "version": "0.8.13+commit.abaa5c0e.Emscripten.clang"
  },
  "schemaVersion": "3.4.3",
  "updatedAt": "2023-01-31T17:41:52.853Z",
  "networkType": "ethereum",
  "devdoc": {
    "kind": "dev",
    "methods": {
      "getPriceFeed()": {
        "returns": {
          "_0": "Price Feed address"
        }
      }
    },
    "version": 1
  },
  "userdoc": {
    "kind": "user",
    "methods": {
      "getLatestPrice()": {
        "notice": "Returns the latest price"
      },
      "getPriceFeed()": {
        "notice": "Returns the Price Feed address"
      }
    },
    "version": 1
  }
}