{
  "contractName": "SimpleFundContract",
  "abi": [
    {
      "inputs": [],
      "stateMutability": "nonpayable",
      "type": "constructor"
    },
    {
      "inputs": [],
      "name": "SimpleFundContract__NotOwner",
      "type": "error"
    },
    {
      "anonymous": false,
      "inputs": [
        {
          "indexed": true,
          "internalType": "address",
          "name": "_from",
          "type": "address"
        },
        {
          "indexed": true,
          "internalType": "address",
          "name": "_to",
          "type": "address"
        },
        {
          "indexed": false,
          "internalType": "uint256",
          "name": "_value",
          "type": "uint256"
        }
      ],
      "name": "Fund",
      "type": "event"
    },
    {
      "stateMutability": "payable",
      "type": "fallback",
      "payable": true
    },
    {
      "stateMutability": "payable",
      "type": "receive",
      "payable": true
    },
    {
      "inputs": [],
      "name": "fund",
      "outputs": [],
      "stateMutability": "payable",
      "type": "function",
      "payable": true
    },
    {
      "inputs": [],
      "name": "withdraw",
      "outputs": [],
      "stateMutability": "nonpayable",
      "type": "function"
    },
    {
      "inputs": [],
      "name": "cheaperWithdraw",
      "outputs": [],
      "stateMutability": "nonpayable",
      "type": "function"
    },
    {
      "inputs": [],
      "name": "getBalance",
      "outputs": [
        {
          "internalType": "uint256",
          "name": "",
          "type": "uint256"
        }
      ],
      "stateMutability": "view",
      "type": "function",
      "constant": true
    },
    {
      "inputs": [],
      "name": "getOwner",
      "outputs": [
        {
          "internalType": "address",
          "name": "",
          "type": "address"
        }
      ],
      "stateMutability": "view",
      "type": "function",
      "constant": true
    },
    {
      "inputs": [
        {
          "internalType": "uint256",
          "name": "index",
          "type": "uint256"
        }
      ],
      "name": "getFunder",
      "outputs": [
        {
          "internalType": "address",
          "name": "",
          "type": "address"
        }
      ],
      "stateMutability": "view",
      "type": "function",
      "constant": true
    },
    {
      "inputs": [],
      "name": "getFunders",
      "outputs": [
        {
          "internalType": "address[]",
          "name": "",
          "type": "address[]"
        }
      ],
      "stateMutability": "view",
      "type": "function",
      "constant": true
    },
    {
      "inputs": [
        {
          "internalType": "address",
          "name": "funder",
          "type": "address"
        }
      ],
      "name": "getAddressToAmountFunded",
      "outputs": [
        {
          "internalType": "uint256",
          "name": "",
          "type": "uint256"
        }
      ],
      "stateMutability": "view",
      "type": "function",
      "constant": true
    }
  ],
  "bytecode": "0x60a060405234801561001057600080fd5b503373ffffffffffffffffffffffffffffffffffffffff1660808173ffffffffffffffffffffffffffffffffffffffff1681525050608051610da761006e6000396000818161032c0152818161056e01526105940152610da76000f3fe60806040526004361061007f5760003560e01c8063b60d42881161004e578063b60d428814610142578063be2693f01461014c578063d7b4750c14610163578063ea63a044146101a05761008e565b80630343fb251461009857806312065fe0146100d55780633ccfd60b14610100578063893d20e8146101175761008e565b3661008e5761008c6101cb565b005b6100966101cb565b005b3480156100a457600080fd5b506100bf60048036038101906100ba9190610a15565b6102d9565b6040516100cc9190610a5b565b60405180910390f35b3480156100e157600080fd5b506100ea610322565b6040516100f79190610a5b565b60405180910390f35b34801561010c57600080fd5b5061011561032a565b005b34801561012357600080fd5b5061012c61056a565b6040516101399190610a85565b60405180910390f35b61014a6101cb565b005b34801561015857600080fd5b50610161610592565b005b34801561016f57600080fd5b5061018a60048036038101906101859190610acc565b610836565b6040516101979190610a85565b60405180910390f35b3480156101ac57600080fd5b506101b561087d565b6040516101c29190610bb7565b60405180910390f35b6000339080600181540180825580915050600190039060005260206000200160009091909190916101000a81548173ffffffffffffffffffffffffffffffffffffffff021916908373ffffffffffffffffffffffffffffffffffffffff16021790555034600160003373ffffffffffffffffffffffffffffffffffffffff1673ffffffffffffffffffffffffffffffffffffffff168152602001908152602001600020819055503073ffffffffffffffffffffffffffffffffffffffff163373ffffffffffffffffffffffffffffffffffffffff167f2d48ac6acd9c250f93c75e6a8dd61f6f1c062b7f83c1f604cf41a3352df683fc346040516102cf9190610a5b565b60405180910390a3565b6000600160008373ffffffffffffffffffffffffffffffffffffffff1673ffffffffffffffffffffffffffffffffffffffff168152602001908152602001600020549050919050565b600047905090565b7f000000000000000000000000000000000000000000000000000000000000000073ffffffffffffffffffffffffffffffffffffffff163373ffffffffffffffffffffffffffffffffffffffff16146103af576040517f7589872a00000000000000000000000000000000000000000000000000000000815260040160405180910390fd5b60005b60008054905081101561045a5760008082815481106103d4576103d3610bd9565b5b9060005260206000200160009054906101000a900473ffffffffffffffffffffffffffffffffffffffff1690506000600160008373ffffffffffffffffffffffffffffffffffffffff1673ffffffffffffffffffffffffffffffffffffffff1681526020019081526020016000208190555050808061045290610c37565b9150506103b2565b50600067ffffffffffffffff81111561047657610475610c7f565b5b6040519080825280602002602001820160405280156104a45781602001602082028036833780820191505090505b50600090805190602001906104ba92919061090b565b5060003373ffffffffffffffffffffffffffffffffffffffff16476040516104e190610cdf565b60006040518083038185875af1925050503d806000811461051e576040519150601f19603f3d011682016040523d82523d6000602084013e610523565b606091505b5050905080610567576040517f08c379a000000000000000000000000000000000000000000000000000000000815260040161055e90610d51565b60405180910390fd5b50565b60007f0000000000000000000000000000000000000000000000000000000000000000905090565b7f000000000000000000000000000000000000000000000000000000000000000073ffffffffffffffffffffffffffffffffffffffff163373ffffffffffffffffffffffffffffffffffffffff1614610617576040517f7589872a00000000000000000000000000000000000000000000000000000000815260040160405180910390fd5b60008080548060200260200160405190810160405280929190818152602001828054801561069a57602002820191906000526020600020905b8160009054906101000a900473ffffffffffffffffffffffffffffffffffffffff1673ffffffffffffffffffffffffffffffffffffffff1681526020019060010190808311610650575b5050505050905060005b81518110156107255760008282815181106106c2576106c1610bd9565b5b602002602001015190506000600160008373ffffffffffffffffffffffffffffffffffffffff1673ffffffffffffffffffffffffffffffffffffffff1681526020019081526020016000208190555050808061071d90610c37565b9150506106a4565b50600067ffffffffffffffff81111561074157610740610c7f565b5b60405190808252806020026020018201604052801561076f5781602001602082028036833780820191505090505b506000908051906020019061078592919061090b565b5060003373ffffffffffffffffffffffffffffffffffffffff16476040516107ac90610cdf565b60006040518083038185875af1925050503d80600081146107e9576040519150601f19603f3d011682016040523d82523d6000602084013e6107ee565b606091505b5050905080610832576040517f08c379a000000000000000000000000000000000000000000000000000000000815260040161082990610d51565b60405180910390fd5b5050565b600080828154811061084b5761084a610bd9565b5b9060005260206000200160009054906101000a900473ffffffffffffffffffffffffffffffffffffffff169050919050565b6060600080548060200260200160405190810160405280929190818152602001828054801561090157602002820191906000526020600020905b8160009054906101000a900473ffffffffffffffffffffffffffffffffffffffff1673ffffffffffffffffffffffffffffffffffffffff16815260200190600101908083116108b7575b5050505050905090565b828054828255906000526020600020908101928215610984579160200282015b828111156109835782518260006101000a81548173ffffffffffffffffffffffffffffffffffffffff021916908373ffffffffffffffffffffffffffffffffffffffff1602179055509160200191906001019061092b565b5b5090506109919190610995565b5090565b5b808211156109ae576000816000905550600101610996565b5090565b600080fd5b600073ffffffffffffffffffffffffffffffffffffffff82169050919050565b60006109e2826109b7565b9050919050565b6109f2816109d7565b81146109fd57600080fd5b50565b600081359050610a0f816109e9565b92915050565b600060208284031215610a2b57610a2a6109b2565b5b6000610a3984828501610a00565b91505092915050565b6000819050919050565b610a5581610a42565b82525050565b6000602082019050610a706000830184610a4c565b92915050565b610a7f816109d7565b82525050565b6000602082019050610a9a6000830184610a76565b92915050565b610aa981610a42565b8114610ab457600080fd5b50565b600081359050610ac681610aa0565b92915050565b600060208284031215610ae257610ae16109b2565b5b6000610af084828501610ab7565b91505092915050565b600081519050919050565b600082825260208201905092915050565b6000819050602082019050919050565b610b2e816109d7565b82525050565b6000610b408383610b25565b60208301905092915050565b6000602082019050919050565b6000610b6482610af9565b610b6e8185610b04565b9350610b7983610b15565b8060005b83811015610baa578151610b918882610b34565b9750610b9c83610b4c565b925050600181019050610b7d565b5085935050505092915050565b60006020820190508181036000830152610bd18184610b59565b905092915050565b7f4e487b7100000000000000000000000000000000000000000000000000000000600052603260045260246000fd5b7f4e487b7100000000000000000000000000000000000000000000000000000000600052601160045260246000fd5b6000610c4282610a42565b91507fffffffffffffffffffffffffffffffffffffffffffffffffffffffffffffffff8203610c7457610c73610c08565b5b600182019050919050565b7f4e487b7100000000000000000000000000000000000000000000000000000000600052604160045260246000fd5b600081905092915050565b50565b6000610cc9600083610cae565b9150610cd482610cb9565b600082019050919050565b6000610cea82610cbc565b9150819050919050565b600082825260208201905092915050565b7f43616c6c206661696c6564210000000000000000000000000000000000000000600082015250565b6000610d3b600c83610cf4565b9150610d4682610d05565b602082019050919050565b60006020820190508181036000830152610d6a81610d2e565b905091905056fea264697066735822122011d033a492f62ac5771021620bc95d83fa563cecf0a3947fc059b4ecac229dc364736f6c634300080d0033",
  "immutableReferences": {
    "365": [
      {
        "length": 32,
        "start": 812
      },
      {
        "length": 32,
        "start": 1390
      },
      {
        "length": 32,
        "start": 1428
      }
    ]
  },
  "source": "// SPDX-License-Identifier: MIT\r\n\r\n// Pragme\r\npragma solidity ^0.8.7;\r\n\r\n// Imports\r\n\r\n// Error codes\r\nerror SimpleFundContract__NotOwner();\r\n\r\n// Interfaces, Libraries, Contracts\r\n\r\ncontract SimpleFundContract {\r\n\r\n    // Type Declarations\r\n\r\n    // State Variables\r\n    address[] private s_funders;\r\n    mapping(address => uint256) private s_addressToAmountFunded;\r\n    address private immutable i_owner;\r\n\r\n    // Events\r\n    event Fund(address indexed _from, address indexed _to, uint256 _value);\r\n\r\n    // Modifiers\r\n    modifier onlyOwner {\r\n        if (msg.sender != i_owner) revert SimpleFundContract__NotOwner();\r\n        _;\r\n    }\r\n\r\n    ////////////\r\n    // Functions\r\n    ////////////\r\n\r\n    // Constructor\r\n    constructor() {\r\n        i_owner = msg.sender;\r\n    }\r\n\r\n    // Receive, Fallback\r\n    //\r\n    // If someone sends ETH to this contract without calling the fund() function,\r\n    // the fund() function will be called anyway through receive() and fallback()\r\n    // special functions\r\n    receive() external payable {\r\n        fund();\r\n    }\r\n\r\n    fallback() external payable {\r\n        fund();\r\n    }\r\n\r\n    // External\r\n\r\n    // Public\r\n    function fund() public payable {\r\n        s_funders.push(msg.sender);\r\n        s_addressToAmountFunded[msg.sender] = msg.value;\r\n        emit Fund(msg.sender, address(this), msg.value);\r\n    }\r\n\r\n    function withdraw() public onlyOwner {\r\n\r\n        for (uint256 funderIndex = 0; funderIndex < s_funders.length; funderIndex++) {\r\n            address funder = s_funders[funderIndex];\r\n            s_addressToAmountFunded[funder] = 0;\r\n        }\r\n\r\n        // Reset the array with 0 addresses in it\r\n        s_funders = new address[](0);\r\n\r\n        /////////////////////////////////////\r\n        // // Three ways to make transactions\r\n        /////////////////////////////////////\r\n        // // Transfer\r\n        // payable(msg.sender).transfer(address(this).balance);\r\n        // // Send\r\n        // bool sendSuccess = payable(msg.sender).transfer(address(this).balance);\r\n        // require(sendSuccess, \"Send failed!\");\r\n        // Call\r\n        (bool callSuccess, ) = payable(msg.sender).call{value: address(this).balance}(\"\");\r\n        require(callSuccess, \"Call failed!\");\r\n    }\r\n\r\n    function cheaperWithdraw() public onlyOwner {\r\n\r\n        // Instead of constantly reading from storage (expensive), we read\r\n        // only once and put the data into memory (lot cheaper). Then we will\r\n        // read from memory instead from storage\r\n        address[] memory funders = s_funders;\r\n\r\n        for (uint256 funderIndex = 0; funderIndex < funders.length; funderIndex++) {\r\n            address funder = funders[funderIndex];\r\n            // Mapping cannot be in memory, so we continue as before. No way around it.\r\n            s_addressToAmountFunded[funder] = 0;\r\n        }\r\n\r\n        // Reset the array with 0 addresses in it\r\n        s_funders = new address[](0);\r\n\r\n        /////////////////////////////////////\r\n        // // Three ways to make transactions\r\n        /////////////////////////////////////\r\n        // // Transfer\r\n        // payable(msg.sender).transfer(address(this).balance);\r\n        // // Send\r\n        // bool sendSuccess = payable(msg.sender).transfer(address(this).balance);\r\n        // require(sendSuccess, \"Send failed!\");\r\n        // Call\r\n        (bool callSuccess, ) = payable(msg.sender).call{value: address(this).balance}(\"\");\r\n        require(callSuccess, \"Call failed!\");\r\n    }\r\n\r\n    // Internal\r\n\r\n    // Private\r\n\r\n    // View, Pure\r\n    function getBalance() public view returns (uint256) {\r\n        return address(this).balance;\r\n    }\r\n\r\n    function getOwner() public view returns (address) {\r\n        return i_owner;\r\n    }\r\n\r\n    function getFunder(uint256 index) public view returns (address) {\r\n        return s_funders[index];\r\n    }\r\n\r\n    function getFunders() public view returns (address[] memory) {\r\n        return s_funders;\r\n    }\r\n\r\n    function getAddressToAmountFunded(address funder) public view returns(uint256) {\r\n        return s_addressToAmountFunded[funder];\r\n    }\r\n\r\n}",
  "sourcePath": "C:\\Users\\Fritz7x64\\Documents\\Angular\\simple-blockchain-dapp\\contracts\\SimpleFundContract.sol",
  "compiler": {
    "name": "solc",
    "version": "0.8.13+commit.abaa5c0e.Emscripten.clang"
  },
  "schemaVersion": "3.4.3",
  "updatedAt": "2023-02-01T09:26:26.452Z",
  "networkType": "ethereum",
  "devdoc": {
    "kind": "dev",
    "methods": {},
    "version": 1
  },
  "userdoc": {
    "kind": "user",
    "methods": {},
    "version": 1
  }
}