{
  "contractName": "SimpleFundContract",
  "abi": [
    {
      "inputs": [],
      "stateMutability": "nonpayable",
      "type": "constructor"
    },
    {
      "inputs": [],
      "name": "SimpleFundContract__NotOwner",
      "type": "error"
    },
    {
      "stateMutability": "payable",
      "type": "fallback",
      "payable": true
    },
    {
      "stateMutability": "payable",
      "type": "receive",
      "payable": true
    },
    {
      "inputs": [],
      "name": "fund",
      "outputs": [],
      "stateMutability": "payable",
      "type": "function",
      "payable": true
    },
    {
      "inputs": [],
      "name": "withdraw",
      "outputs": [],
      "stateMutability": "nonpayable",
      "type": "function"
    },
    {
      "inputs": [],
      "name": "cheaperWithdraw",
      "outputs": [],
      "stateMutability": "nonpayable",
      "type": "function"
    },
    {
      "inputs": [],
      "name": "getBalance",
      "outputs": [
        {
          "internalType": "uint256",
          "name": "",
          "type": "uint256"
        }
      ],
      "stateMutability": "view",
      "type": "function",
      "constant": true
    },
    {
      "inputs": [],
      "name": "getOwner",
      "outputs": [
        {
          "internalType": "address",
          "name": "",
          "type": "address"
        }
      ],
      "stateMutability": "view",
      "type": "function",
      "constant": true
    },
    {
      "inputs": [
        {
          "internalType": "uint256",
          "name": "index",
          "type": "uint256"
        }
      ],
      "name": "getFunder",
      "outputs": [
        {
          "internalType": "address",
          "name": "",
          "type": "address"
        }
      ],
      "stateMutability": "view",
      "type": "function",
      "constant": true
    },
    {
      "inputs": [],
      "name": "getFunders",
      "outputs": [
        {
          "internalType": "address[]",
          "name": "",
          "type": "address[]"
        }
      ],
      "stateMutability": "view",
      "type": "function",
      "constant": true
    },
    {
      "inputs": [
        {
          "internalType": "address",
          "name": "funder",
          "type": "address"
        }
      ],
      "name": "getAddressToAmountFunded",
      "outputs": [
        {
          "internalType": "uint256",
          "name": "",
          "type": "uint256"
        }
      ],
      "stateMutability": "view",
      "type": "function",
      "constant": true
    }
  ],
  "bytecode": "0x60a060405234801561001057600080fd5b503373ffffffffffffffffffffffffffffffffffffffff1660808173ffffffffffffffffffffffffffffffffffffffff1681525050608051610d4261006e600039600081816102c701528181610509015261052f0152610d426000f3fe60806040526004361061007f5760003560e01c8063b60d42881161004e578063b60d428814610142578063be2693f01461014c578063d7b4750c14610163578063ea63a044146101a05761008e565b80630343fb251461009857806312065fe0146100d55780633ccfd60b14610100578063893d20e8146101175761008e565b3661008e5761008c6101cb565b005b6100966101cb565b005b3480156100a457600080fd5b506100bf60048036038101906100ba91906109b0565b610274565b6040516100cc91906109f6565b60405180910390f35b3480156100e157600080fd5b506100ea6102bd565b6040516100f791906109f6565b60405180910390f35b34801561010c57600080fd5b506101156102c5565b005b34801561012357600080fd5b5061012c610505565b6040516101399190610a20565b60405180910390f35b61014a6101cb565b005b34801561015857600080fd5b5061016161052d565b005b34801561016f57600080fd5b5061018a60048036038101906101859190610a67565b6107d1565b6040516101979190610a20565b60405180910390f35b3480156101ac57600080fd5b506101b5610818565b6040516101c29190610b52565b60405180910390f35b6000339080600181540180825580915050600190039060005260206000200160009091909190916101000a81548173ffffffffffffffffffffffffffffffffffffffff021916908373ffffffffffffffffffffffffffffffffffffffff16021790555034600160003373ffffffffffffffffffffffffffffffffffffffff1673ffffffffffffffffffffffffffffffffffffffff16815260200190815260200160002081905550565b6000600160008373ffffffffffffffffffffffffffffffffffffffff1673ffffffffffffffffffffffffffffffffffffffff168152602001908152602001600020549050919050565b600047905090565b7f000000000000000000000000000000000000000000000000000000000000000073ffffffffffffffffffffffffffffffffffffffff163373ffffffffffffffffffffffffffffffffffffffff161461034a576040517f7589872a00000000000000000000000000000000000000000000000000000000815260040160405180910390fd5b60005b6000805490508110156103f557600080828154811061036f5761036e610b74565b5b9060005260206000200160009054906101000a900473ffffffffffffffffffffffffffffffffffffffff1690506000600160008373ffffffffffffffffffffffffffffffffffffffff1673ffffffffffffffffffffffffffffffffffffffff168152602001908152602001600020819055505080806103ed90610bd2565b91505061034d565b50600067ffffffffffffffff81111561041157610410610c1a565b5b60405190808252806020026020018201604052801561043f5781602001602082028036833780820191505090505b50600090805190602001906104559291906108a6565b5060003373ffffffffffffffffffffffffffffffffffffffff164760405161047c90610c7a565b60006040518083038185875af1925050503d80600081146104b9576040519150601f19603f3d011682016040523d82523d6000602084013e6104be565b606091505b5050905080610502576040517f08c379a00000000000000000000000000000000000000000000000000000000081526004016104f990610cec565b60405180910390fd5b50565b60007f0000000000000000000000000000000000000000000000000000000000000000905090565b7f000000000000000000000000000000000000000000000000000000000000000073ffffffffffffffffffffffffffffffffffffffff163373ffffffffffffffffffffffffffffffffffffffff16146105b2576040517f7589872a00000000000000000000000000000000000000000000000000000000815260040160405180910390fd5b60008080548060200260200160405190810160405280929190818152602001828054801561063557602002820191906000526020600020905b8160009054906101000a900473ffffffffffffffffffffffffffffffffffffffff1673ffffffffffffffffffffffffffffffffffffffff16815260200190600101908083116105eb575b5050505050905060005b81518110156106c057600082828151811061065d5761065c610b74565b5b602002602001015190506000600160008373ffffffffffffffffffffffffffffffffffffffff1673ffffffffffffffffffffffffffffffffffffffff168152602001908152602001600020819055505080806106b890610bd2565b91505061063f565b50600067ffffffffffffffff8111156106dc576106db610c1a565b5b60405190808252806020026020018201604052801561070a5781602001602082028036833780820191505090505b50600090805190602001906107209291906108a6565b5060003373ffffffffffffffffffffffffffffffffffffffff164760405161074790610c7a565b60006040518083038185875af1925050503d8060008114610784576040519150601f19603f3d011682016040523d82523d6000602084013e610789565b606091505b50509050806107cd576040517f08c379a00000000000000000000000000000000000000000000000000000000081526004016107c490610cec565b60405180910390fd5b5050565b60008082815481106107e6576107e5610b74565b5b9060005260206000200160009054906101000a900473ffffffffffffffffffffffffffffffffffffffff169050919050565b6060600080548060200260200160405190810160405280929190818152602001828054801561089c57602002820191906000526020600020905b8160009054906101000a900473ffffffffffffffffffffffffffffffffffffffff1673ffffffffffffffffffffffffffffffffffffffff1681526020019060010190808311610852575b5050505050905090565b82805482825590600052602060002090810192821561091f579160200282015b8281111561091e5782518260006101000a81548173ffffffffffffffffffffffffffffffffffffffff021916908373ffffffffffffffffffffffffffffffffffffffff160217905550916020019190600101906108c6565b5b50905061092c9190610930565b5090565b5b80821115610949576000816000905550600101610931565b5090565b600080fd5b600073ffffffffffffffffffffffffffffffffffffffff82169050919050565b600061097d82610952565b9050919050565b61098d81610972565b811461099857600080fd5b50565b6000813590506109aa81610984565b92915050565b6000602082840312156109c6576109c561094d565b5b60006109d48482850161099b565b91505092915050565b6000819050919050565b6109f0816109dd565b82525050565b6000602082019050610a0b60008301846109e7565b92915050565b610a1a81610972565b82525050565b6000602082019050610a356000830184610a11565b92915050565b610a44816109dd565b8114610a4f57600080fd5b50565b600081359050610a6181610a3b565b92915050565b600060208284031215610a7d57610a7c61094d565b5b6000610a8b84828501610a52565b91505092915050565b600081519050919050565b600082825260208201905092915050565b6000819050602082019050919050565b610ac981610972565b82525050565b6000610adb8383610ac0565b60208301905092915050565b6000602082019050919050565b6000610aff82610a94565b610b098185610a9f565b9350610b1483610ab0565b8060005b83811015610b45578151610b2c8882610acf565b9750610b3783610ae7565b925050600181019050610b18565b5085935050505092915050565b60006020820190508181036000830152610b6c8184610af4565b905092915050565b7f4e487b7100000000000000000000000000000000000000000000000000000000600052603260045260246000fd5b7f4e487b7100000000000000000000000000000000000000000000000000000000600052601160045260246000fd5b6000610bdd826109dd565b91507fffffffffffffffffffffffffffffffffffffffffffffffffffffffffffffffff8203610c0f57610c0e610ba3565b5b600182019050919050565b7f4e487b7100000000000000000000000000000000000000000000000000000000600052604160045260246000fd5b600081905092915050565b50565b6000610c64600083610c49565b9150610c6f82610c54565b600082019050919050565b6000610c8582610c57565b9150819050919050565b600082825260208201905092915050565b7f43616c6c206661696c6564210000000000000000000000000000000000000000600082015250565b6000610cd6600c83610c8f565b9150610ce182610ca0565b602082019050919050565b60006020820190508181036000830152610d0581610cc9565b905091905056fea2646970667358221220750ca97e55cdcd88dcd1474afc8aa63ef5bc80d972d5b43324bd4491850a372f64736f6c634300080d0033",
  "immutableReferences": {
    "365": [
      {
        "length": 32,
        "start": 711
      },
      {
        "length": 32,
        "start": 1289
      },
      {
        "length": 32,
        "start": 1327
      }
    ]
  },
  "source": "// SPDX-License-Identifier: MIT\r\n\r\n// Pragme\r\npragma solidity ^0.8.7;\r\n\r\n// Imports\r\n\r\n// Error codes\r\nerror SimpleFundContract__NotOwner();\r\n\r\n// Interfaces, Libraries, Contracts\r\n\r\ncontract SimpleFundContract {\r\n\r\n    // Type Declarations\r\n\r\n    // State Variables\r\n    address[] private s_funders;\r\n    mapping(address => uint256) private s_addressToAmountFunded;\r\n    address private immutable i_owner;\r\n\r\n    // Events\r\n\r\n    // Modifiers\r\n    modifier onlyOwner {\r\n        if (msg.sender != i_owner) revert SimpleFundContract__NotOwner();\r\n        _;\r\n    }\r\n\r\n    ////////////\r\n    // Functions\r\n    ////////////\r\n\r\n    // Constructor\r\n    constructor() {\r\n        i_owner = msg.sender;\r\n    }\r\n\r\n    // Receive, Fallback\r\n    //\r\n    // If someone sends ETH to this contract without calling the fund() function,\r\n    // the fund() function will be called anyway through receive() and fallback()\r\n    // special functions\r\n    receive() external payable {\r\n        fund();\r\n    }\r\n\r\n    fallback() external payable {\r\n        fund();\r\n    }\r\n\r\n    // External\r\n\r\n    // Public\r\n    function fund() public payable {\r\n        s_funders.push(msg.sender);\r\n        s_addressToAmountFunded[msg.sender] = msg.value;\r\n    }\r\n\r\n    function withdraw() public onlyOwner {\r\n\r\n        for (uint256 funderIndex = 0; funderIndex < s_funders.length; funderIndex++) {\r\n            address funder = s_funders[funderIndex];\r\n            s_addressToAmountFunded[funder] = 0;\r\n        }\r\n\r\n        // Reset the array with 0 addresses in it\r\n        s_funders = new address[](0);\r\n\r\n        /////////////////////////////////////\r\n        // // Three ways to make transactions\r\n        /////////////////////////////////////\r\n        // // Transfer\r\n        // payable(msg.sender).transfer(address(this).balance);\r\n        // // Send\r\n        // bool sendSuccess = payable(msg.sender).transfer(address(this).balance);\r\n        // require(sendSuccess, \"Send failed!\");\r\n        // Call\r\n        (bool callSuccess, ) = payable(msg.sender).call{value: address(this).balance}(\"\");\r\n        require(callSuccess, \"Call failed!\");\r\n    }\r\n\r\n    function cheaperWithdraw() public onlyOwner {\r\n\r\n        // Instead of constantly reading from storage (expensive), we read\r\n        // only once and put the data into memory (lot cheaper). Then we will\r\n        // read from memory instead from storage\r\n        address[] memory funders = s_funders;\r\n\r\n        for (uint256 funderIndex = 0; funderIndex < funders.length; funderIndex++) {\r\n            address funder = funders[funderIndex];\r\n            // Mapping cannot be in memory, so we continue as before. No way around it.\r\n            s_addressToAmountFunded[funder] = 0;\r\n        }\r\n\r\n        // Reset the array with 0 addresses in it\r\n        s_funders = new address[](0);\r\n\r\n        /////////////////////////////////////\r\n        // // Three ways to make transactions\r\n        /////////////////////////////////////\r\n        // // Transfer\r\n        // payable(msg.sender).transfer(address(this).balance);\r\n        // // Send\r\n        // bool sendSuccess = payable(msg.sender).transfer(address(this).balance);\r\n        // require(sendSuccess, \"Send failed!\");\r\n        // Call\r\n        (bool callSuccess, ) = payable(msg.sender).call{value: address(this).balance}(\"\");\r\n        require(callSuccess, \"Call failed!\");\r\n    }\r\n\r\n    // Internal\r\n\r\n    // Private\r\n\r\n    // View, Pure\r\n    function getBalance() public view returns (uint256) {\r\n        return address(this).balance;\r\n    }\r\n\r\n    function getOwner() public view returns (address) {\r\n        return i_owner;\r\n    }\r\n\r\n    function getFunder(uint256 index) public view returns (address) {\r\n        return s_funders[index];\r\n    }\r\n\r\n    function getFunders() public view returns (address[] memory) {\r\n        return s_funders;\r\n    }\r\n\r\n    function getAddressToAmountFunded(address funder) public view returns(uint256) {\r\n        return s_addressToAmountFunded[funder];\r\n    }\r\n\r\n}",
  "sourcePath": "C:\\Users\\Fritz7x64\\Documents\\Angular\\simple-blockchain-dapp\\contracts\\SimpleFundContract.sol",
  "compiler": {
    "name": "solc",
    "version": "0.8.13+commit.abaa5c0e.Emscripten.clang"
  },
  "schemaVersion": "3.4.3",
  "updatedAt": "2023-01-29T15:08:38.780Z",
  "networkType": "ethereum",
  "devdoc": {
    "kind": "dev",
    "methods": {},
    "version": 1
  },
  "userdoc": {
    "kind": "user",
    "methods": {},
    "version": 1
  }
}